:100000000C9429040C946C180C9446040C9446042B
:100010000C9446040C9446040C9446040C94460438
:100020000C9446040C9446040C94942C0C94682D67
:100030000C9432250C9446040C9446040C9446040B
:100040000C9446040C9446040C9446040C94460408
:100050000C9446040C947D250C9446040C944604A0
:100060000C9446040C9446040C9446040C944604E8
:100070000C9446040C9446040C9446040C944604D8
:100080000C9446040C9446040C9446040C944604C8
:100090000C9446040C9446040C9446040C944604B8
:1000A0000C9446040C9446040C944604514D4B2089
:1000B000697320617765736F6D652E646464646431
:1000C00000514D4B20697320617765736F6D652E0C
:1000D0006464000102E20101040103E2010435301D
:1000E00030307C01012B01043530307C010151019D
:1000F000043530307C01015101043530307C010180
:100100002801043530307C01012B01043530307C6E
:1001100001012B01043530307C010128006D616B39
:100120006520316D79746573743A64656661756CC8
:1001300074202D6A3801043130307C010128006DB3
:10014000616B6520316174746573743A64656661CE
:10015000756C74202D6A3401043130307C01012823
:100160000001043130307C0001043135307C010263
:10017000E00101150103E001043135307C01012B60
:1001800001043135307C01012B01043135307C0113
:10019000012B01043135307C01012800010431308C
:1001A00030307C006D616B6520316D796461637402
:1001B000796C3A64656661756C74202D6A38010447
:1001C0003130307C01012800E0004B0100004E017D
:1001D00000004A0025001C000B00110000004D002B
:1001E000260018000D0010005000095727000C00D1
:1001F0000E0036004F002C002D0012000F003700BB
:10020000520028002E001300330038005100075719
:10021000A900AA00A800E4000C0000002B082C5D37
:1002200000001600000000572B0017000A00050010
:100230000000015757001500090019004F09045725
:10024000560008000700060050092A002E5D1A001B
:1002500016001B00045101510351140004001D003D
:100260002A5D02572D5D2C5D390046001B5C0000A5
:1002700001000100000001000000010013571257A7
:1002800014571557000001003502340250001E02B9
:10029000010001002D02520051003802010001004E
:1002A000310034004F001F02010001000100010075
:1002B0000100010001000100010001000100010036
:1002C0000100000001000100000001000000010029
:1002D0002402105711576700000001002202260077
:1002E00023002000630001002102250022001F00DE
:1002F000270001002002240021001E002700010029
:10030000010001002C5D2B5D0100010001000100D6
:1003100001000100010000000100010000000100D7
:10032000000001000100F900FA00010000000100D6
:100330000100F400F2000100010001000100F000E2
:10034000F1000100010001000100F500F3000100CF
:100350000100010001000100010001000100010095
:100360000100010001000100010000000100010086
:100370000000010000000100010001000100010077
:1003800000000100450042003F003C000100010068
:10039000440041003E003B000100010043004000DA
:1003A0003D003A00010001000100010001000100D0
:1003B00001000100A600A500005C01000100000092
:1003C000010001000000010000000100C35CC45CEA
:1003D000C55C0100000001000100C65CC75C3A007A
:1003E000010001000100C85CC95C3B000100010084
:1003F0000100CA5CCB5C3C0001000100010001006F
:100400000100010001000100005C01000100010089
:1004100001000000010001000000010000000100D7
:1004200001000100010001000000010001000100C5
:1004300001000100010001000100010001000100B4
:1004400001000100005C0100010001000100010049
:10045000005C01000100010001000100A600A500F0
:100460000100010001000000010001000000010086
:1004700000000100C35CC45CC55C01000000010019
:100480000100C65CC75C3A00010001000100C85CC5
:10049000C95C3B00010001000100CA5CCB5C3C0070
:1004A0000100010001000100010001000100010044
:1004B000005C0100010001000100000001000100DA
:1004C0000000010000000100010001000100010026
:1004D0000000010001000100010001002C00520099
:1004E000010001000100010028005000010001008E
:1004F0000100010001004F000100010001000100A6
:100500000100510001000100010001000100000094
:10051000010001000000010000000100C35CC45C98
:10052000C55C0100000001000100C65CC75C3A0028
:10053000010001000100C85CC95C3B000100010032
:100540000100CA5CCB5C3C0001000100010001001D
:100550000100010001000100005C01000100010038
:100560000100000001000100000001000000010086
:100570000100010001000100000001000100010074
:100580000100010001000100010001000100010063
:1005900001000100005C01000100010001000100F8
:1005A000005C01000100010001000100A600A5009F
:1005B0000100010001000000010001000000010035
:1005C00000000100C35CC45CC55C010000000100C8
:1005D0000100C65CC75C3A00010001000100C85C74
:1005E000C95C3B00010001000100CA5CCB5C3C001F
:1005F00001000100010001000100010001000100F3
:10060000005C010001000100010000000100010088
:1006100000000100000001000100010001000100D4
:1006200000000100010001000100010001000100C3
:10063000010001000100010001000100005C010057
:100640000100010001000100005C01000100010047
:1006500001000100A600A50001000100010000004A
:10066000CCB900002E2E00000DF4010000000000A7
:10067000000000002A2B28000000000000000000FD
:100680000000000000000029000000002C1E3420A3
:10069000212224342627252E362D3738271E1F20C9
:1006A0002122232425263333362E37381F0405060E
:1006B0000708090A0B0C0D0E0F1011121314151652
:1006C0001718191A1B1C1D2F3130232D3504050650
:1006D0000708090A0B0C0D0E0F1011121314151632
:1006E0001718191A1B1C1D2F3130354C0000000043
:1006F00000000000000000000000000000000000FA
:100700007E0F00D4FFFFFFC7000000780403300015
:100710000000140331006D00790064006100630083
:10072000740079006C0000000C034B0065006E0043
:100730006E00790000000403090409023B00020175
:1007400000A0FA09040000010301010009211101C0
:10075000000122400007058103080001090401008F
:100760000103000000092111010001228A00070590
:1007700082032000011201100100000008EDFE00BC
:100780000001000102030105010902A1018502091E
:1007900001A1000509190129051500250195057517
:1007A00001810295017503810105010930093115A7
:1007B00081257F95027508810609381581257F9569
:1007C0000175088106050C0A38021581257F9501FF
:1007D00075088106C0C005010906A1018505050748
:1007E00019E029E715002501950875018102050723
:1007F000190029EF1500250195F075018102050802
:10080000190129059505750191029501750391015D
:10081000C005010906A101050719E029E715002512
:100820000195087501810295017508810105071977
:100830000029FF150026FF009506750881000508B0
:10084000190129059505750191029501750391011D
:10085000C00011241FBECFEFDAE0DEBFCDBF13E032
:10086000A0E0B1E0E6E5F5E602C005900D92A439FE
:10087000B107D9F724E0A4E9B3E001C01D92A53D7A
:10088000B207E1F70E94D4290C9460320C94000066
:100890001092E50208958091E502823019F482EE0B
:1008A0000E94CB1A8091E502833019F482EE0E94F7
:1008B000CB1A8091E502863031F481EE0E94CB1A8A
:1008C00082EE0E94CB1A8091E502853031F481EEF0
:1008D0000E94CB1A82EE0E94CB1A1092E502089574
:1008E0008091E502823019F480EE0E94CB1A80914B
:1008F000E502833019F480EE0E94CB1A8091E50264
:10090000853031F481EE0E94CB1A80EE0E94CB1A22
:100910008091E502863031F481EE0E94CB1A80EEA0
:100920000E94CB1A1092E50208958091E502823070
:1009300019F482EE0E94CB1A8091E502853031F4E1
:1009400082EE0E94CB1A81EE0E94CB1A8091E502C2
:10095000863019F48AE40E94CB1A1092E5020895B9
:100960008091E502823019F480EE0E94CB1A8091CA
:10097000E502853031F480EE0E94CB1A81EE0E94B0
:10098000CB1A8091E502863019F48DE40E94CB1ACF
:100990001092E50208958091E502823049F480EEDC
:1009A0000E94CB1A81EE0E94CB1A80E50C94CB1AE0
:1009B00008958091E502823049F480EE0E94CB1ABE
:1009C00081EE0E94CB1A8FE40C94CB1A089580918B
:1009D000E502823019F487E50E94CB1A8091E50286
:1009E000853019F486E50E94CB1A8091E5028630A5
:1009F00019F487E50E94CB1A1092E50208958091C0
:100A0000E502823019F485E50E94CB1A8091E50257
:100A1000853019F484E50E94CB1A8091E502863076
:100A200019F485E50E94CB1A1092E5020895809191
:100A3000E502863019F48FE20E94CB1A1092E5028B
:100A400008950C9417058091E502863019F486E22A
:100A50000E94CB1A1092E50208958091E50286303B
:100A600019F486E30E94CB1A1092E5020895809152
:100A7000E502823021F481EE90E00E94460B8091E5
:100A8000E502833021F481EE90E00E94460B8091D4
:100A9000E502853041F480EE90E00E94460B82EE44
:100AA00090E00E94460B8091E502863041F480EE92
:100AB00090E00E94460B82EE90E00E94460B10925E
:100AC000E50208958091E502813011F40E946F21C2
:100AD0008091E502823019F481E00E946F218091BB
:100AE000E502833019F481E00E946F218091E502D4
:100AF000843019F481E00E946F218091E5028530F5
:100B000019F481E00E946F218091E502863019F48A
:100B100081E00E946F211092E50208958091E50224
:100B2000823039F481E00E946F2183EE90E00E94D0
:100B3000460B8091E502833039F481E00E946F21F9
:100B400083EE90E00E94460B8091E502853021F40F
:100B500083EE90E00E94460B8091E502863021F4FE
:100B600083EE90E00E94460B1092E502089580917A
:100B7000E502823011F40E946F211092E50208957F
:100B80008091E502823019F481E00E946F2180910A
:100B9000E502853031F48FE40E94CB1A80EE0E948A
:100BA000CB1A8091E502863019F480E90E94CB1AB5
:100BB0008091E502883031F48FE40E94CB1A80EEF8
:100BC0000E94CB1A8091E502893019F48FE40E94CB
:100BD000CB1A1092E50208958091E502823059F413
:100BE00081E00E946F2183EE90E00E94460B80EE30
:100BF00090E00E94460B8091E502833059F481E039
:100C00000E946F2183EE90E00E94460B80EE90E000
:100C10000E94460B8091E502853059F481E00E94E4
:100C20006F2183EE90E00E94460B80EE90E00E94E0
:100C3000460B8091E502863059F481E00E946F21D5
:100C400083EE90E00E94460B80EE90E00E94460BFF
:100C50001092E50208958091E502823019F483EE46
:100C60000E94CB1A8091E502853031F481EE0E941A
:100C7000CB1A80E00E946F218091E502863019F442
:100C800083EE0E94CB1A8091E502893019F483EE3D
:100C90000E94CB1A1092E50208950C942B060C9436
:100CA0002B06FB018D322DE5920709F474C060F527
:100CB0008A322DE5920709F452C040F4883291053A
:100CC00009F440C08C97F1F181E008958B322DE555
:100CD000920709F44DC08C329D45B1F7828188237B
:100CE00099F382EE0E94531A8BE290E00E945B0B14
:100CF00082EE0E94CB1A81E691E00E94D40C86E13C
:100D000090E00E945B0BE0CF80332DE5920709F461
:100D100050C070F48E322DE5920709F443C08F3233
:100D20009D4591F68281882379F283ED90E01DC084
:100D300082332DE5920709F45EC008F443C0833383
:100D40009D4511F68281882309F4BECF80EE0E9472
:100D5000CB1A82EE0E94CB1A1092E6023EC082812C
:100D6000882309F4B1CF84EA91E00E94D40CACCF7F
:100D70008281882309F4A8CF84EF90E00E945B0B66
:100D80008CE991E00E94D40C84EF90E00E945B0B10
:100D900088E691E0EACF8281882309F495CF8FE33A
:100DA00091E0E3CF8281882309F48ECF8DE191E039
:100DB000DCCF8281882309F487CF8AE093E00E9408
:100DC0001E1282CF8281882309F47ECF8091E702B0
:100DD000882331F082EE0E94CB1A1092E70274CF82
:100DE00082EE0E94531A8BE290E00E945B0B81E03E
:100DF0008093E70269CF8281882309F465CF8091CF
:100E0000E602882331F080EE0E94CB1A1092E602AF
:100E10005BCF80EE0E94531A8BE290E00E945B0B46
:100E200081E08093E60250CFFC018081813041F463
:100E30009285992331F1818581111AC082E008954C
:100E4000823041F48185811115C08285811114C0E1
:100E500084E00895833041F4818581110FC082853B
:100E600081110EC087E00895843051F48AE008951E
:100E700083E0089586E0089585E0089589E0089567
:100E800088E008950E9414078093E50281508A301B
:100E9000B8F4E82FF0E0EE59FD4C0C942E2F8BE2C5
:100EA0000C94211B82EE0C94531A89E191E00C946E
:100EB0005B0B82EE0E94531A81EEF5CF83EEF0CFEA
:100EC00008950E9414078093E50281508A30B8F497
:100ED000E82FF0E0E459FD4C0C942E2F89E20C949D
:100EE000211B80EE0C94531A86E091E00C945B0B6E
:100EF00080EE0E94531A81EEF5CF83EEF0CF089575
:100F00000E9414078093E50281508730F8F4E82F9F
:100F1000F0E0EA58FD4C0C942E2F8CE490E00C94F9
:100F20005B0B81EE90E00C94310B84E091E00E9429
:100F30005B0B8AE290E0F3CF80EE90E00E94310BF1
:100F400082EE90E0F0CF82E00C94922108950E940E
:100F500014078093E5028150863018F481E00C94E8
:100F60004E2108950E9414078093E502843028F4EE
:100F7000823058F4813029F008958550823040F055
:100F8000089583EE90E00C945B0B81E00E944E216B
:100F900083EE90E00C94310B0E9414078093E502DD
:100FA000823061F018F4813031F00895853049F0D5
:100FB000863061F008958AE40C94211B82EE0C9433
:100FC000531A82EE0E94531A81EEF9CF8AE40E94EE
:100FD000211B8AE4F4CF0E9414078093E50282303B
:100FE00061F018F4813031F00895853049F0863091
:100FF00061F008958DE40C94211B80EE0C94531A3B
:1010000080EE0E94531A81EEF9CF8DE40E94211BDD
:101010008DE4F4CF0E9414078093E502813019F02B
:10102000823021F0089580E90C94211B82E00C9419
:101030004E210E9414078093E50281508A30A8F562
:10104000E82FF0E0E358FD4C0C942E2F80E90C942F
:10105000211B81E00C944E2180EE0E94531A8FE4F4
:101060000E94211B80EE0C94CB1A80EE0E94531A32
:101070008FE404C080E90E94211B80E90C94531A7C
:1010800080EE0E94531A8FE40E94211BE8CF8FE468
:101090000E94211B8FE40E94211BEACF80EE0E9458
:1010A000531A8FE40E94211BEECF08950E9414076B
:1010B0008093E502843028F4823058F4813029F09E
:1010C00008958550823028F0089583EE90E00C94C6
:1010D0005B0B81E00E944E2183EE90E00E94310B79
:1010E00080EE90E00C94310B0E9414078093E5028F
:1010F000853091F028F4813041F0823049F0089534
:10110000863099F0893071F0089583EE0C94211B9C
:1011100083EE90E00C94310B80E00E944E2181EE32
:1011200090E0F8CF83EE0E94211B83EE0E94211BEA
:1011300083EE0C94531A0C9474080C947408FC01FC
:101140008081813041F49185911114C09285992359
:1011500089F082E00895823041F48185811107C0D1
:101160008285811106C084E0089588E0089586E0B4
:10117000089585E008950E949F088093E5028130DC
:1011800019F0823081F0089580EE0E94531A81EEAA
:101190000E94531A80E50E94211B81EE0E94CB1A07
:1011A00080EE0C94CB1A80EE0E94531A81EE0E94BE
:1011B000531A80E50C94531A0E949F088093E5020D
:1011C000813019F0823081F0089580EE0E94531A28
:1011D00081EE0E94531A8FE40E94211B81EE0E942F
:1011E000CB1A80EE0C94CB1A80EE0E94531A81EE3B
:1011F0000E94531A8FE40C94531A0E949F08809304
:10120000E5028823A1F0833020F08450823050F032
:10121000089580EE0E94531A86E00E94211B80EE02
:101220000C94CB1A80EE0E94531A8BE1F6CF0895EE
:101230000E949F088093E502843091F028F4813069
:1012400041F0823049F00895853061F0863069F0D0
:10125000089587E50C94211B87E590E00C94310BF1
:1012600086E5F8CF86E590E0F9CF87E50E94211B5F
:1012700087E50C94531A0E949F088093E5028430FE
:1012800091F028F4813041F0823049F008958530A2
:1012900061F0863069F0089585E50C94211B85E5A1
:1012A00090E00C94310B84E5F8CF84E590E0F9CF21
:1012B00085E50E94211B85E50C94531A0E949F0826
:1012C0008093E502863038F48430C0F4813031F008
:1012D000823071F00895863009F1089581EE90E032
:1012E0000E94310B8FE20E94211B81EE0C94CB1ADD
:1012F00081EE90E00E94310B80E3F5CF81EE90E02B
:101300000E94310B8FE20E94211B80E30E94211B6F
:1013100081EE0E94CB1A80E50C94211B81EE90E0B7
:101320000E94310B8FE20E94211B81EE0E94CB1A9A
:1013300081EE90E00E94310B8FE290E00E94310B31
:10134000D4CF0E949F088093E502863038F4843021
:1013500068F4813031F0823039F00895863071F0D0
:1013600008958FE20C94211B80E3FCCF8FE20E9452
:10137000211B80E30E94211B80E5F4CF8FE20E94B5
:10138000211B8FE290E00C94310B0E949F08809308
:10139000E502863038F48430C0F4813031F0823098
:1013A00071F00895863009F1089581EE90E00E9471
:1013B000310B86E20E94211B81EE0C94CB1A81EE48
:1013C00090E00E94310B87E2F5CF81EE90E00E9421
:1013D000310B86E20E94211B87E20E94211B81EED5
:1013E0000E94CB1A80E50C94211B81EE90E00E94B4
:1013F000310B86E20E94211B81EE0E94CB1A81EE06
:1014000090E00E94310B86E290E00E94310BD4CF35
:101410000E949F088093E502863038F48430C0F43F
:10142000813031F0823071F00895863009F10895ED
:1014300081EE90E00E94310B86E30E94211B81EE39
:101440000C94CB1A81EE90E00E94310B87E3F5CF2C
:1014500081EE90E00E94310B86E30E94211B87E31E
:101460000E94211B81EE0E94CB1A80E50C94211B67
:1014700081EE90E00E94310B86E30E94211B81EEF9
:101480000E94CB1A81EE90E00E94310B87E390E03E
:101490000E94310BD4CFEEE6F4E08081836080833C
:1014A00008958091B503882309F4A3C08091B30304
:1014B0009091B4030E946E258B3F910508F499C06A
:1014C0001092B5030E9485168091A9039091AA03FA
:1014D000079709F04DC08091AB039091AC03209128
:1014E000AD033091AE03822B932B2091AF0330914B
:1014F000B003822B932B2091B1033091B203822B46
:10150000932B892B59F18091AB039091AC030797F2
:1015100009F06FC08091AD039091AE032091AF03AD
:101520003091B003822B932B2091B1033091B20301
:10153000822B932B892B09F045C081EC90E00E940F
:10154000D40C8091A9039091AA03079789F4809104
:10155000AB039091AC030797A9F1089582E095E55C
:101560000E945B0B8091A9039091AA03079759F2FF
:101570008091A9039091AA030497D9F58091AB03B8
:101580009091AC034697A9F58091AD039091AE037D
:101590002091AF033091B003822B932B2091B103A4
:1015A0003091B203822B932B892B19F583EE0E9485
:1015B000531A86E10E94531A86E10E94CB1A83EEE9
:1015C0000C94CB1A8091AD039091AE03469789F4A9
:1015D0008091AF039091B0032091B1033091B20399
:1015E000822B932B892B29F48CEA90E00E94D40C57
:1015F000BFCF0895CF93DF939C013A9521153F41CA
:1016000068F5EC01CC27D170DC01AA27B270AC01DF
:10161000442754709C012227387094FF11C080E148
:10162000CD2B09F480E0AB2B09F08062452B09F04B
:101630008064232B09F08068FB01DF91CF9109942E
:1016400081E0CD2B09F480E0AB2B09F08260452BC3
:1016500009F08460232B81F38860EECFDF91CF9176
:101660000895CF93DF93EC01805E9109089720F0F5
:1016700061E77DE1209711F464E37BE1CE010E94F4
:10168000FA0A8C2FDF91CF910C94531ACF93DF93EA
:10169000EC010E94CB1ACE01805E9109089720F0E0
:1016A00068E77DE1209711F46BE37BE1CE01DF91E8
:1016B000CF910C94FA0ACF93DF93EC010E94310B87
:1016C000CE01DF91CF910C94460B81E008950C94EC
:1016D000510608950C94690B1F93CF93DF9300D0AC
:1016E00000D00F92CDB7DEB749835A836B83309118
:1016F000D10389819A8131111DC06623B9F022235B
:10170000A9F00E944122182F682F89819A810E9496
:10171000EA2169817A81812F0F900F900F900F90AD
:101720000F90DF91CF911F910C946A0D0E941822A7
:10173000182FEFCF0E94412269817A81EDCFFC0101
:10174000262F408151816281738184810C946C0BBE
:10175000CF93DF93EC0160E00E949F0BBE01DF910D
:10176000CF910C946A0BFF920F931F93CF93DF934B
:10177000E82FF0E0E459F94FF490C82FC695C695CC
:10178000C695D0E0FE01E450F94F0491877010E057
:10179000082E02C0159507950A94E2F701701127EB
:1017A000C451D94FFE01C491D0E002C0D595C79570
:1017B0008A95E2F7C170DD270115110519F081EE58
:1017C0000E94531A209719F086EE0E94531A8F2D0B
:1017D0000E94211BCD2B19F086EE0E94CB1A012B03
:1017E00041F081EEDF91CF911F910F91FF900C940A
:1017F000CB1ADF91CF911F910F91FF900895EF9237
:10180000FF920F931F93CF93DF93EC01162F0AE003
:101810008881882309F454C0813009F04EC0898141
:10182000813099F47E0122E0E20EF11C8A810E944F
:10183000211BE7012196812F815050F3EFE9FFE052
:101840003197F1F700C00000F7CF823041F47E01FC
:1018500082E0E80EF11C8A810E94531AEACF83309D
:1018600041F47E01E2E0EE0EF11C8A810E94CB1A67
:10187000E0CF843011F02196DDCF2A81229690E0CE
:1018800080E0AE014F5F5F4F2053330B2A303105AC
:1018900048F0019778F2EFE9FFE03197F1F700C0E7
:1018A0000000F7CF089FB001099F700D1124C901F6
:1018B000860F971F2981EA01E4CF0E94B30BBACFAC
:1018C000DF91CF911F910F91FF90EF90089560E00D
:1018D0000C94FF0BEF92FF920F931F93CF93DF9324
:1018E0008C01F62E8AE0E82EF8018491882309F411
:1018F00054C0813009F04DC0E8012196FE01849169
:10190000813091F42196FE0184910E94211B8E0169
:101910000F5F1F4F8F2D815038F3EFE9FFE03197B4
:10192000F1F700C00000F7CF823039F4E8012296C9
:10193000FE0184910E94531AEACF833039F4E80102
:101940002296FE0184910E94CB1AE1CF8430F9F6F1
:10195000E8012296FE01249190E080E0FE0131969C
:101960002053330B2A30310548F0019780F2EFE91C
:10197000FFE03197F1F700C00000F7CFE89EA0012B
:10198000E99E500D1124C901840F951F2491EF0188
:10199000E5CF0E94B30BE801BACFDF91CF911F9141
:1019A0000F91FF90EF90089560E00C946A0C0E94F4
:1019B0007E23811102C00E941B240E942A110C94D4
:1019C000310F0E942D160C94330F282F2F7041F0E9
:1019D000822F90E02A3010F44D96089506970895CE
:1019E00087E290E0089508950E948D1D0E94F30CF7
:1019F0002FEF84E39CE0215080409040E1F700C04D
:101A000000000C94A1250F931F93CF93DF93EC015B
:101A100061E00E949F0B8C01BE010E948D15BE01EA
:101A2000C8010E94670B8823E9F1BE01C8010E942A
:101A3000D3158823B9F1BE01C8010E94D0128823B2
:101A400089F1BE01C8010E949F16882359F1BE0189
:101A5000C8010E945717882329F1BE01C8010E94BE
:101A60008E138823F9F0BE01C8010E94E013882379
:101A7000C9F0BE01C8010E940315882399F08A812C
:101A8000882339F001158CE5180751F00F3D1C45EE
:101A900079F0CE01DF91CF911F910F910C94650BDE
:101AA0000E94F40C80E0DF91CF911F910F91089577
:101AB0000E941B24F7CF08950C945B0D81E00895DC
:101AC0000C945E0DCF93C82F0E945C0D8C2FCF918C
:101AD0000C94600D972F70E026E0929F600D711DB1
:101AE0001124FB0194E5899FE00DF11D1124EE0FF7
:101AF000FF1FE853FE4F859194910895CF93DF9394
:101B00000E946A0D0E94560EEC01811522E5920793
:101B100078F5811531E5930708F098C08F3F91055E
:101B200009F0B8F4803F910508F06FC0853A91053F
:101B300040F48430910548F4019739F0D0E0C0E0DA
:101B400004C0805E91090897C8F7CE01DF91CF915C
:101B50000895811540E5940708F05CC0C11580E444
:101B6000D80708F054C0C11590E2D90770F3E6CF4A
:101B7000811526E5920718F5811535E5930708F0DC
:101B80007DC0811544E5940708F073C0982F9695A1
:101B900096959E0123703327C115D34508F45BC089
:101BA000C1E0D0E002C0CC0FDD1F2A95E2F730E2A1
:101BB000939FC0011124C82BD92BDA68C6CFC11559
:101BC0009AE5D90778F4C11529E5D20708F060C075
:101BD000C11538E5D30708F4B1CFDC2FCC27C06F8F
:101BE000D06AB3CFCE0190568115904208F0A6CFAF
:101BF0008D2F8F710E94ED0E90E0982F88278827F7
:101C00009F719C012C2BE90141C0D0659ECFDF70F4
:101C1000D06A9BCFE4E096958795EA95E1F78370CB
:101C20002C2F26952695237090E2299F9001112450
:101C3000382B8C2F8370C1E0D0E002C0CC0FDD1FA9
:101C40008A95E2F7C22BD32BDC687FCFD82FCC2725
:101C5000C16FD06A7ACFC1E0D0E002C0CC0FDD1FE7
:101C60002A95E2F720E2929FC0011124C82BD92BBC
:101C7000EBCFD82FCC27C46FD06A67CF0E94ED0E70
:101C8000C82FD0E0DC2FCC27CC27DF71D0625DCF0E
:101C90008C2F8F700E94ED0E34E0D695C7953A9543
:101CA000E1F7CF709C2FEC01D0694FCF82389105BE
:101CB000B1F1B0F48133910509F475C048F489326B
:101CC000910509F469C08A32910509F473C0089539
:101CD0008533910509F459C08933910501F10895BF
:101CE000833E9105A9F138F4803E9105F9F0823EDA
:101CF000910549F10895863E9105A9F1873E910528
:101D0000C9F1843E910519F52091C70421FF1FC038
:101D10008091C60484FD14C087EE90E00895209160
:101D2000C6042370A1F080EE90E008952091C604CF
:101D300020FD47C03091C70430FF09C024FF44C0D4
:101D400090E080E004C02091C60422FDF7CF089502
:101D50002091C60422FD3BC03091C70430FDE3CF83
:101D600024FFF5CFEDCF2091C60423FFF0CF24FD53
:101D7000E7CFD2CF2091C60423FD2CC03091C704F9
:101D800031FFEECF84EE90E008952091C60425FF48
:101D9000DECF89E290E008952091C60425FFD7CFD9
:101DA00085E390E008952091C60426FFD0CF8AE213
:101DB00090E008952091C60426FFC9CF81E390E00A
:101DC000089589E390E0089583EE90E0089582EE0F
:101DD00090E0089586EE90E008959091C60492FFF9
:101DE00006C0282F28712830F9F4877F846093FF7C
:101DF00006C0282F28712831F1F4877E8461209154
:101E0000C70420FF06C0382F38713830D9F4877FD7
:101E1000816021FF06C0282F28712831D1F4877EE8
:101E2000816194FD877E0895282F24712430F9F66E
:101E30008B7F8860DCCF282F2471243101F78B7EC3
:101E40008861DDCF382F3171313019F78E7F88608E
:101E5000E0CF282F2171213121F78E7E8861E1CFDB
:101E600008950C94300F0C94510AE82FF0E0E355DC
:101E7000FB4F80810895089580EA8A95F1F70895CF
:101E800008950E94AB108091E8028091E80297E0EB
:101E9000811190E09093BC0487E0891B8093BB0480
:101EA000A0E8B3E061E070E08D91E82FE295EF707B
:101EB000F0E041A18F709B0101C0220F8A95EAF7E3
:101EC000922F9095942391A382A1822B82A383E0E9
:101ED000A738B80749F7AAE7B3E061E070E08D9151
:101EE000E82FE295EF70F0E041A18F709B0101C0F7
:101EF000220F8A95EAF7922F9095942391A382A1BD
:101F0000822B82A383E0A038B80749F7EFE9F4E019
:101F1000ADEAB4E08DEA94E011921D928E179F070E
:101F2000D9F787E00E9449100E94D70C0C94B51095
:101F30000E949510882309F18091BB0490E083559D
:101F40009B4F0E94C810811115C0809194038F5F30
:101F500080939403863060F0E091BB04F0E0E35599
:101F6000FB4F90E080E01192019687309105D9F700
:101F70000C94E10C10929403FBCF8091BC0490E090
:101F800083559B4F0E94E1100C94400F8F929F92BB
:101F9000AF92BF92CF92DF92EF92FF920F931F9377
:101FA000CF93DF9380E8A82E83E0B82E0FE914E0EA
:101FB000912CCC24C394D12CF50181915F01C82FC1
:101FC000C295CF70D0E099A18F70760101C0EE0C60
:101FD0008A95EAF7892F8E2989A38AA18E2C80946D
:101FE00088218AA30E943C0FEAE7F3E050E040E03A
:101FF00020E03191A32FA295AF70B0E090968C9124
:1020000090E03F7002C0959587953A95E2F780FD84
:102010003CC08C2D042E01C0880F0A94EAF7282BAF
:102020004F5F5F4F4630510521F789A1882289A271
:102030008AA1E82AEAA2F8018081281741F12083C9
:1020400081E0982A0F5F1F4FF7E8AF16F3E0BF0655
:1020500009F0B2CF6091BC0470E063557B4F292D2D
:1020600047E08FE994E00E944A100E94980F892D62
:10207000DF91CF911F910F91FF90EF90DF90CF9064
:10208000BF90AF909F908F90089580E0C8CF80E080
:10209000D8CF0895FF920F931F93CF93DF93F82E1D
:1020A000092F162FD72FC42F222349F081E08093C8
:1020B00097030E94622590939603809395038091E5
:1020C00097038823A1F080919503909196030E9435
:1020D0006E25029760F0EF2DF02FA12FBD2FCE0FB0
:1020E000DF2FD11DEC17FD0741F410929703DF910C
:1020F000CF911F910F91FF90089581918D93F2CF11
:1021000088EC9091E30097FD0EC0EFE3FCE9319776
:10211000F1F700C000008150A1F70E94192C109225
:10212000CC0480E0089581E00895809198038111A6
:1021300007C00E94801081110AC082E0809398033A
:1021400081E090919803913009F080E0089581E05A
:10215000F5CF0C9495100E94A9108093E8020E947C
:10216000951081110C94BC1008950E949510811156
:1021700002C00C94C210089561E070E089EE92E014
:102180000C941D1861E070E089EE92E00C94241824
:10219000CF93DF93D82FC92F0E94BE18009779F4F0
:1021A000ED2FFC2FDC01A656BC4F2C9121930196FC
:1021B00087309105B9F781E0DF91CF91089580E0F4
:1021C000FBCF30E020E0FC014191CF01F901E65660
:1021D000FC4F40832F5F3F4F27303105A1F7089513
:1021E0001F93CF93DF93811520EC9207D0F0EC0181
:1021F000D05C8091C104827211E009F410E00E9469
:10220000101986958170181729F0CC0FCD2FCC1F8F
:10221000DD0BD195CE018F779927DF91CF911F915B
:1022200008959058FACF97FF13C0FB012281222313
:1022300079F00E94F010FC01EE0FFF1FEE0FFF1F60
:10224000E05AF94F65917591859194910E94D21150
:1022500081E008958CE090E00E94E731482F50E043
:1022600070E060E04093BD045093BE046093BF04EF
:102270007093C0041092A103843009F4089584E09F
:102280008093BD0408956091BD048CE090E00C94AF
:10229000F5311092A10384E08093BD040C944311A6
:1022A0000E94D6228093C1040E94E9228091BD043D
:1022B000813089F0882359F0823091F08430B9F070
:1022C0008FE39CE90197F1F700C00000089582EECA
:1022D0000E94531AF5CF88E193E00E945B0BF0CF88
:1022E00082EE0E94531A87E50E94211BE9CF83EEFC
:1022F0000E94211B88E1F8CF8091BD04813071F0EC
:10230000882341F0823031F0843061F08091C10443
:102310000C94E62282EE0E94CB1AF8CF8CE20E9447
:10232000211BF4CF88E2FBCFBF92CF92DF92EF92D6
:10233000FF920F931F93CF93DF936B017C01C7E054
:10234000D0E00CE110E0BB24B394D701C601002E0D
:1023500004C0B695A795979587950A94D2F78F7084
:10236000D9F4B11004C00E94E50C0E945B0B2197C8
:1023700004501109CF3FDC0751F4DF91CF911F9139
:102380000F91FF90EF90DF90CF90BF900895C430F1
:10239000D105DCF6B12CD9CF0E94E50C0E945B0B75
:1023A000B12CE5CFCF92DF92EF92FF926B017C01CF
:1023B000C114D10481E1E806F104D8F5C114D104B7
:1023C00081E0E806F10420F08091BD04823089F1BB
:1023D0000E945011C114D10481E0E806F10430F1EB
:1023E0008091BD04811122C081E0E81AF108C70183
:1023F000B6012AE096958795779567952A95D1F746
:1024000078528F4F9F4F0E94941183E0D822EE2480
:10241000FF24C701B60174528F4F9F4F0E94941141
:10242000FF90EF90DF90CF900C947C11C701B60124
:10243000F5CFFF90EF90DF90CF9008950F931F930B
:10244000CF93DF93EC01892BF1F4DF91CF911F91B2
:102450000F91089507FD1BC0602F70E090E080E0B1
:1024600021968B019C01185D210931090115184045
:102470002105310540F06F3F2FEF72078207920769
:1024800011F00E94D21108810111E4CFDECF802F1C
:10249000807E803CA9F410E030E020E0C901B80162
:1024A000A6E0660F771F881F991FAA95D1F7607C59
:1024B00077708827992729812F73622B2296D1CF95
:1024C000802F807F803E31F5898190E0B0E0A0E0F0
:1024D000BC01CD01E6E0660F771F881F991FEA95C2
:1024E000D1F7607C7F708827992710E030E020E0EA
:1024F000FCE0000F111F221F331FFA95D1F722278E
:102500003327602B712B822B932B2A812F73622B05
:102510002396A7CF802F887F803FE9F5053FD8F528
:10252000898190E0B0E0A0E0BC01CD012CE0660F15
:10253000771F881F991F2A95D1F76627707F8370B0
:10254000992710E030E020E042E1000F111F221F28
:10255000331F4A95D1F7002711272C713327602BA1
:10256000712B822B932B2B812F73622B0A8110E00E
:1025700030E020E056E0000F111F221F331F5A9554
:10258000D1F7007C1F7022273327602B712B822B01
:10259000932B249666CF21966FEF7FEFCB0161CF0F
:1025A0000F931F93CF93DF93EC018B01FB0182818B
:1025B000882361F00E94D6228272C13EFCE5DF07CB
:1025C000E1F060F4C03EECE5DE0799F0B801CE0121
:1025D000DF91CF911F910F910C941311C73EFCE531
:1025E000DF07A0F78C2F825E8093BD040E94431109
:1025F000EDCF811104C081E003C08111FCCF8FEFCA
:102600000E944911E3CFAF92BF92CF92DF92EF9237
:10261000FF920F931F93CF93DF937C015B01C42F35
:10262000D22FFC0182818823F9F04093A4030E94F9
:1026300062259093A3038093A20380E28C0F8830DD
:1026400008F061C0C77081E001C0880FCA95EAF741
:10265000DF91CF911F910F91FF90EF90DF90CF907E
:10266000BF90AF900C94341B1091A403141340C07E
:102670008091A2039091A3030E946E256C01B70183
:10268000C5010E943F20C816D90690F5C0E2CD0FC3
:102690001D17B9F080E2810F883040F4177081E097
:1026A00001C0880F1A95EAF70E943B1BC83048F416
:1026B00081E09D2F977001C0880F9A95EAF70E94DC
:1026C000341B802F0E94211BC830E8F4D77081E0B2
:1026D00001C0880FDA95EAF7DF91CF911F910F9132
:1026E000FF90EF90DF90CF90BF90AF900C943B1B8A
:1026F00080E28C0F883038F4C77081E001C0880F09
:10270000CA95EAF7E9CFDF91CF911F910F91FF9022
:10271000EF90DF90CF90BF90AF9008950F939C0102
:10272000CB01243F4CE5340759F1A8F4293DFCE5E1
:102730003F0701F12A3D4CE53407D1F1283D3C45E6
:1027400091F406E221EE41EE68ED7CE50E94031370
:1027500080E00F910895263FFCE53F07E9F0B0F0D7
:10276000273F3C45F9F0FC018281882339F1109222
:10277000A403EFCF07E225EE45EE69ED7CE5E6CF59
:1027800006E221EE40EE64EF7CE5E0CF07E225EEC5
:1027900044EE65EF7CE5DACF06E221EE42EE66EF2D
:1027A0007CE5D4CF07E225EE46EE67EF7CE5CECFA1
:1027B00008E221E045EE6AED7CE5C8CF81E0C9CFB3
:1027C000CF93DF93EC01FB018281882309F419C1C7
:1027D000C230FCE5DF07C0F1C6319CE5D90730F017
:1027E0009E012B5F3C452930310570F50E949123F5
:1027F0009093C7048093C604C031ECE5DE0709F46A
:10280000CFC008F05BC0C8308CE5D80709F4B6C06B
:1028100088F5C430ECE5DE0709F4A8C0C0F4C23086
:102820008CE5D80709F49CC08091C6048260C3304F
:10283000DC4509F498C08091C6049091C7040E94B9
:102840009F230E948D1D80E0DF91CF91089580919C
:10285000C6048061C630ECE5DE0709F484C08091CF
:10286000C6048860C730DC4508F47DC08091C6048A
:10287000806279C0CC308CE5D80709F489C070F447
:102880008091C6048C60CA30ECE5DE0709F46BC0A9
:1028900008F478C08091C6048E7F65C0CE308CE588
:1028A000D80709F479C08091C6048B7FCF30DC450E
:1028B00008F459C08091C6048F7E55C0CC3FECE52A
:1028C000DE0709F457C030F5C3318CE5D80709F4A9
:1028D0006FC078F4C131ECE5DE0709F465C0C231A0
:1028E000DC4509F0A8CF0E948D1D8091C6048F772A
:1028F0003AC0C5318CE5D80709F462C008F476C047
:102900008091C7048160CB3FDC4509F094CF809370
:10291000C70491CFC115FDE5DF0709F44DC088F468
:102920008091C7048D7FCE3F9CE5D90781F38091CC
:10293000C7048E7FCF3FDC4550F38091C70483608E
:10294000E6CFC230FDE5DF0709F459C008F444C002
:1029500080E0C330DD4509F06ECF0E941D246BCFAF
:102960008091C60481608093C60465CF8091C604BF
:102970008460F9CF8091C7048260C9CF8091C6047A
:102980008064F1CF0E948D1D8091C6048068EBCFDA
:102990008091C6048D7FE7CF8091C604877FE3CF07
:1029A0008091C6048F7DDFCF8091C6048F7BDBCF03
:1029B0008091C604837FD7CF8091C7048C7FA7CF37
:1029C0008091C60482FB992790F921E0922790FB21
:1029D00082F990FB83F9C7CF8091C704982F909517
:1029E00091708E7F892B90FB81F991CF0E948D1D74
:1029F0009091C604892F97FB87F98058B4CF81E066
:102A0000ACCF81E021CFCF93DF93EB0186319C45A2
:102A100011F50E94D6229A81992399F08A7A91E041
:102A200009F490E09093A503811109C089E20E9406
:102A3000B1220E941B2380E0DF91CF91089585E3AE
:102A4000F6CF8091A503811104C089E20E94B822CB
:102A5000F0CF85E3FBCF81E0EFCFCF93DF93EC01A5
:102A600081E0898B8F810E94D92288850E94EF2284
:102A70000E941B23EA81FB81309739F06C897D89A4
:102A8000CE010696DF91CF910994DF91CF91089501
:102A9000EF92FF920F931F93CF93DF93EC018A8500
:102AA000811134C0EB80FC8087E5F81A26E12E9D69
:102AB000C0012F9D900D1124DC01A050BF4F149632
:102AC000ED91FC911597309731F054966D917C9172
:102AD0008A5F9E4F099586E18E9D80018F9D100D26
:102AE000112400501F4FF80187810E94DF22F80156
:102AF00080850E94F5220E941B23188219861B865E
:102B00001E821D821092A7031092A603DF91CF911F
:102B10001F910F91FF90EF900895DF92EF92FF9237
:102B20000F931F93CF93DF937C01FB018281882356
:102B300091F08091F1028F3F71F0C0E0D1E010E0A0
:102B400000E0DD24D3948091F102082E000C990B53
:102B50008017910744F4DF91CF911F910F91FF905F
:102B6000EF90DF9008958E818823C9F089859A853A
:102B70008E159F0539F48091A6039091A7038E15B9
:102B80009F0569F0DF86FC86EB868989811103C089
:102B9000CE010E942D15CE0106960E9448150F5FAA
:102BA0001F4F6696D0CFEF92FF920F931F93CF9354
:102BB000DF937C0197558F3F910509F0D8F520915F
:102BC000F102022E000C330B2817390714F48093FE
:102BD000F102FB01228136E1389F8001399F100DFF
:102BE0001124E801C050DF4F288B92818E819923F8
:102BF00049F1FA86E9868F5F8E830E9462259E875F
:102C00008D870E9402238F830E94D62288870E948C
:102C1000EC229885892B8887E881F981309731F0FB
:102C20006C897D89C8018A5F9E4F0995F092A70340
:102C3000E092A60381E0DF91CF911F910F91FF9069
:102C4000EF9008958823B1F38989882399F3C80107
:102C50008A5F9E4F0E944815EDCFCF92DF92EF9290
:102C6000FF920F931F93CF93DF938091F10210E0B7
:102C700006E18F3FF1F5DF91CF911F910F91FF900A
:102C8000EF90DF90CF9008950E9DF0010F9DF00D15
:102C90001124E050FF4FC288D388C114D10439F405
:102CA00070E060E0818592850E943F206C010E9D5E
:102CB000E0010F9DD00D1124C050DF4F8E8188237D
:102CC000B9F08D859E850E946E25C816D90680F4C0
:102CD000109F700111248989811105C0C70180509E
:102CE0009F4F0E942D15C7018A5F9E4F0E94481575
:102CF0001F5FE12EF12C8091F102082E000C990B40
:102D00008E159F050CF6B7CF089508958091B503F1
:102D1000811114C00E94841681E08093B5030E9443
:102D200062259093B4038093B3031092A803E9EA59
:102D3000F3E08AE0DF011D928A95E9F708950F9389
:102D40001F93CF938C01FB01C281C11106C0C1E06A
:102D50008C2FCF911F910F9108958091B5038823F7
:102D600029F18091B3039091B4030E946E258A3FAC
:102D7000910568F78091A803853098F4E82FF0E07A
:102D8000EE0FFF1FE755FC4F118300838F5F809389
:102D9000A8030E9462259093B4038093B303C0E01C
:102DA000D7CF1092B5030E948516F3CF07311C458B
:102DB00071F60E948616CCCF8091B6039091B7032E
:102DC000892BE1F08091B8039091B9030E946E25A0
:102DD0002091F2023091F3022817390780F4809194
:102DE000B6039091B70392600E945B0B1092B903F7
:102DF0001092B8031092B7031092B6030895809111
:102E0000B6030E94211BF2CFCF93DF93EC010E9407
:102E100062259093B9038093B803D093B703C0930E
:102E2000B603DF91CF9108958091F402882321F0B9
:102E30001092F4020C94DC1681E08093F402089561
:102E40001092F4020C94DC160F931F93CF93DF9330
:102E5000CDB7DEB728970FB6F894DEBF0FBECDBF53
:102E60008091F3028F938091F2028F938EE893E02A
:102E70009F938F931F9288E08F938E010F5F1F4F58
:102E80001F930F930E94482FC8010E94670C0FB632
:102E9000F894DEBF0FBECDBF28960FB6F894DEBF04
:102EA0000FBECDBFDF91CF911F910F9108951F935A
:102EB000CF93DF93EC01FB011281112309F45AC077
:102EC0008436910541F0F8F48B32910521F0A8F495
:102ED00004974A97A8F40E94DC168091F402882394
:102EE000B9F10E94D622811133C0CE010E9404178D
:102EF00082E00E94662310E02BC08D970C9758F358
:102F00000E94DC1625C08A319C4589F1CB318CE5C5
:102F1000D80788F4C831ECE5DE0719F18091F20298
:102F20009091F3020597C931DC4551F79093F30274
:102F30008093F2020DC0CC318CE5D80771F030F0EF
:102F4000CD31DC45E9F60E94201702C00E9414171B
:102F5000812FDF91CF911F91089581E08093F4023A
:102F6000F7CF8091F2029091F3020596DFCF0E9495
:102F70002417EECF0E94DC1611E0EACF8EE1489BC9
:102F800002C08150E1F7489BFECF0895589880E237
:102F90008A95F1F7589A0895FC013BE03A95F1F7CC
:102FA00098E020E080E031E040E14A95F1F7880FB9
:102FB000489B02C08160232742E04A95F1F7000058
:102FC00040E14A95F1F7915079F790E19A95F1F740
:102FD00099B132E03A95F1F7000040E14A95F1F7F6
:102FE000917092272081920F90830895EF92FF9223
:102FF0000F931F93CF93DF930F92CDB7DEB7198254
:103000008C017C01E60EF11C0E151F0561F481E0B8
:103010009981911180E00F90DF91CF911F910F91D5
:10302000FF90EF9008950E94BE17CE0101960E9476
:10303000CC17F80181938F01E7CF9093BB03809366
:10304000BA03509A589A08959093BB038093BA0399
:103050005098589AE89AE9E6F0E080818C7F808366
:1030600008956150770B91E001C0990F6A95EAF7D6
:1030700020E031E0911108C0222391F0589A80E2BB
:103080008A95F1F758980895492F482339F0589AAE
:10309000232740E24A95F1F79695ECCF5898F9CF5F
:1030A0005898EDCFFF920F931F93CF93DF93EC01CE
:1030B0008C01060F111DC017D10731F4DF91CF919C
:1030C0001F910F91FF900895F9900E94C61768E034
:1030D0008F2D0E943118EFCF1F920F920FB60F92D3
:1030E00011242F933F934F935F936F937F938F930D
:1030F0009F93AF93BF93CF93DF93EF93FF93589832
:10310000509AC091BA03D091BB036D81662321F020
:103110008E819F810E9452180E94C61780E18A9575
:10312000F1F758985098589A80E18A95F1F76A819A
:10313000662309F18B819C810E94F617E881F98151
:10314000882311F088E001C082E080830E94BE17CE
:10315000FF91EF91DF91CF91BF91AF919F918F91AF
:103160007F916F915F914F913F912F910F900FBE83
:103170000F901F901895E881F981E4CFCF93DF93EA
:10318000C091BA03D091BB03F894509A589885E047
:103190008A95F1F700005098589A80E28A95F1F7E5
:1031A000489B0CC0509A589AE881F98181E080834D
:1031B000789481E090E0DF91CF9108956D8166234E
:1031C00081F08E819F810E94F61781110AC0509A6A
:1031D000589AE881F98182E08083789482E090E0D7
:1031E000EACF0E94BE1780E28A95F1F75898509A6C
:1031F00080E18A95F1F76A81662321F08B819C81B9
:103200000E9452180E94C617E881F98110827894B2
:1032100090E080E0D0CF9093C1038093C0030895E5
:10322000E091C003F091C103309721F00190F0814B
:10323000E02D099480E00895E091C003F091C1036E
:10324000309799F020910903222359F02091C60468
:1032500027FF07C0DC012C9111962C93119725E0D4
:103260002C930280F381E02D09940895E091C0032E
:10327000F091C103309739F022E0DC012C930480F7
:10328000F581E02D099408952091BE033091BF038C
:103290002817390771F09093BF038093BE03E09124
:1032A000C003F091C103309721F00680F781E02D33
:1032B000099408952091BC033091BD032817390764
:1032C00071F09093BD038093BC03E091C003F09133
:1032D000C103309721F00084F185E02D0994089511
:1032E00085B7806885BF85B7806885BF08950895D4
:1032F00008950C9477190C944B0A0E9470190E943F
:1033000078190C9479190C9495100E9459250E94F3
:10331000410F0E94D3250C947B19BF92CF92DF926C
:10332000EF92FF920F931F93CF93DF93CDB7DEB74A
:103330002A970FB6F894DEBF0FBECDBF0E94C60F0E
:103340000E948319882309F45EC083ECC82E83E0B1
:10335000D82E10E000E0B02E802F0E94350FE82E0E
:10336000F601F1906F01F81609F447C080916E04E0
:1033700081FD0E943B0F9F2D9E2580E0FF24F3944A
:10338000292F2F21B1F18E83BF82EF2081E009F434
:1033900080E088870E9462258160782F9A878987DC
:1033A0004E815F8168858A850E94241AF801ED5359
:1033B000FC4F8081F826F0820E947E270E9410191F
:1033C0009091C203891781F10E9410198093C20362
:1033D0002A960FB6F894DEBF0FBECDBFDF91CF9116
:1033E0001F910F91FF90EF90DF90CF90BF900C94C2
:1033F000620D8F5FFF0C863019F60F5F1F4F0E3086
:10340000110509F0A8CF8FEF89838A831B820E9460
:1034100062258160782F9D838C8349815A816B81DD
:103420008D810E94241AC8CF2A960FB6F894DEBF69
:103430000FBECDBFDF91CF911F910F91FF90EF9005
:10344000DF90CF90BF900895CF93DF93CDB7DEB7D5
:103450002B970FB6F894DEBF0FBECDBF4F835887B2
:1034600069877A878B871E821D8285E0FE013796E9
:10347000DE01119601900D928A95E1F749815A81FA
:103480006B817C818D819E812B960FB6F894DEBF77
:103490000FBECDBFDF91CF910C944220FC01808103
:1034A00091810C948322CF93C82F882309F471C093
:1034B0008238C1F40E94101981FD6BC089E30E941B
:1034C000B1220E941B232FEF81EE94E02150804017
:1034D0009040E1F700C0000089E30E94B822CF913C
:1034E0000C941B238338A1F40E94101980FD51C055
:1034F00083E50E94B1220E941B232FEF81EE94E00E
:10350000215080409040E1F700C0000083E5E5CF06
:103510008438A1F40E94101982FD3BC087E40E9408
:10352000B1220E941B232FEF81EE94E021508040B6
:103530009040E1F700C0000087E4CFCF8CEF8C0F04
:10354000813A90F46C2F8091F5029091F6020E94DE
:103550003624882329F08C2F0E94B8220E941B2336
:103560008C2F0E94B122BBCF80E28C0F883048F4B0
:10357000C77081E001C0880FCA95EAF70E94D9227E
:10358000AECFC03F30F08C2F0E947826CF910C94A4
:103590006327CF910895882309F452C0823871F4CB
:1035A0000E94101981FF4CC089E30E94B1220E9441
:1035B0001B2389E30E94B8220C941B23833859F4FF
:1035C0000E94101980FF3CC083E50E94B1220E9436
:1035D0001B2383E5EFCF843859F40E94101982FF32
:1035E0002FC087E40E94B1220E941B2387E4E2CF10
:1035F0009CEF980F913AF0F290E2980F983050F4C7
:10360000877091E001C0990F8A95EAF7892F0E948F
:10361000DF22D2CF9BE5980F933020F490E080E03A
:103620000C94441998E5980F973120F490E080E0CD
:103630000C945A19803F20F00E94E0260C946327D6
:103640000895CF93C82F0E94531AC93349F42FEF1E
:1036500087EE93E0215080409040E1F700C00000E9
:103660008C2FCF910C94CB1A882321F00E94D92261
:103670000C941B230895882321F00E94DF220C94D0
:103680001B230895BF92CF92DF92EF92FF920F9388
:103690001F93CF93DF936C01D62FC72FFC010581B9
:1036A00002950F70128111110E94FC220E94CF22FC
:1036B000E82E882391F01123E9F08C2F807F80344D
:1036C00021F080E28D0F8830A8F082E00E9466230E
:1036D0000E94CF2291E0E82EE926BC2EB2949FE012
:1036E000B922FBE0FB15A8F1EB2DF0E0E957FD4C0A
:1036F0000C942E2FE12CF1CF0C2F0F70C07F11F006
:103700000295007F1123A9F0002359F080E28D0F6C
:10371000883010F0D11109C0802F0E94D9220E9458
:103720001B238D2F0E94531A14C0802F0E94EF225A
:10373000F6CF8D2F0E94CB1A002359F080E28D0F17
:10374000883010F0D1112CC0802F0E94DF220E94FF
:103750001B232B2D2850330B2430310520F40E94DD
:1037600010190E94620DEE2009F472C10E94CB2252
:1037700080FD6EC1F60112820E94C5220E944E2178
:10378000C6010E94491D0E94C522DF91CF911F9161
:103790000F91FF90EF90DF90CF90BF900C946F212E
:1037A000802F0E94F522D3CF2C2F2F70F22EC07FB6
:1037B000C03219F0F29480EFF822DD2369F0D130A5
:1037C00049F1112391F1002351F1F601858180FF28
:1037D000A8CF8F70858323C0112381F0011106C00B
:1037E0000E9402238F290E94341BB3CF0130C1F7FE
:1037F0000E9402238F290E940823ABCF011106C02B
:103800000E9411238F2D0E943B1BA3CF013009F48E
:10381000A0CFF6CF112329F0063008F09ACF8F2DD4
:10382000E2CF053008F095CFEDCF002359F3D9331F
:1038300049F4FFEF27EE33E0F15020403040E1F74C
:1038400000C000008D2F0E94CB1A83CF8D2F112333
:1038500029F00E9478260E9463277BCF0E94E026F1
:10386000FACF8C2F837009F041C0111172CF4D2F08
:10387000429546954770440F440F0D2F0F7010E08E
:1038800030E020E0042E04C0000F111F221F331F60
:103890000A94D2F760E070E0CB01D4FF0FC06FE074
:1038A00070E080E090E004C0660F771F881F991FCA
:1038B0004A95D2F76095709580959095C695C69576
:1038C000C370602B712B822B932BC23049F058F4BC
:1038D000C13019F00E9400213CCF0E94EE2039CF68
:1038E0000E94122136CF0E94EC2033CF86951123FF
:1038F00011F08C2F8170882309F42BCF4D2F429526
:1039000046954770440F440F0D2F0F7010E030E0C4
:1039100020E0042E04C0000F111F221F331F0A9441
:10392000D2F760E070E0CB01D4FF0FC06FE070E031
:1039300080E090E004C0660F771F881F991F4A95AA
:10394000D2F76095709580959095C695C695C37091
:10395000602B712B822B932BC23049F058F4C1306D
:1039600019F00E94C521F5CE0E94B321F2CE0E942B
:10397000D721EFCE0E942821ECCECF70112329F061
:103980008C2F0E944E218D2F2ECF8D2F0E943B1BFE
:103990008C2F0E946F21DDCED23F89F160F4D03FA1
:1039A000C9F0D13F29F1112309F442C00111B9CE68
:1039B0008C2F8F7121C0D33F39F1D43FA1F7112350
:1039C00069F1CF718C2F0E944E2163E08C2F0E94F1
:1039D0005123BFCE112341F0053008F0BACE8C2F11
:1039E0008F710E949221B5CE063008F0B2CEF7CF8B
:1039F0008C2F8F71112369F20E944E21AACE8C2F39
:103A00008F711123C9F3C5CF112329F08C2F8F712A
:103A10000E9439219ECE0E9434219BCE81E00E94DB
:103A20006623023008F495CE82E00E94662391CE90
:103A3000002359F0D93309F005CF8FEF97EEE3E07B
:103A400081509040E040E1F7FBCE8C2F8F71A1CFE9
:103A5000DF91CF911F910F91FF90EF90DF90CF906A
:103A6000BF9008950F931F93CF93DF93EC0168816C
:103A700079818A810E948D228C010E94E9210E9415
:103A8000EB20B801CE01DF91CF911F910F910C94E3
:103A9000421BCF93DF93EC018B819C81892B29F012
:103AA0008881998189238F3F59F4DF91CF910895BF
:103AB000CE010E94321DCE01DF91CF910C94A80B54
:103AC000CE010E94030D8111F3CF0E94CF228823E3
:103AD00061F38A81882349F382E0DF91CF910C94CE
:103AE0006623882321F00E94EF220C941B23089563
:103AF000882321F00E94F5220C941B2308950E9434
:103B0000FC220E94FF220E941B230E948A280C9400
:103B100063270E94BF220C947F1D0E94E9220C940F
:103B2000891DE92FE295EF70E250EE3070F4F0E07D
:103B3000ED56FD4C0C942E2F803F19F020F4883E5A
:103B400020F481E00895843FE1F380E00895883E09
:103B5000C0F3813FD1F7F5CF93FB882780F9089513
:103B60000E9483220C94911DCF93DF9300D000D04C
:103B70000F92CDB7DEB70F900F900F900F900F9070
:103B8000DF91CF910895CF93DF9300D000D000D084
:103B9000CDB7DEB726960FB6F894DEBF0FBECDBF09
:103BA000DF91CF9108951F93CF93DF93C091D203FC
:103BB00016E08091D3038C1304C0DF91CF911F9145
:103BC0000895D0E01C9FF0011D9FF00D1124EC52D0
:103BD000FC4F4081518162817381848195810E9473
:103BE000C31D2196C770E5CF409104045091050490
:103BF0006091060470910704809108049091090473
:103C00000C94C31D2091D2039091D30356E0291345
:103C100002C080E0089530E0529FF001539FF00D04
:103C20001124EC52FC4F7181761306C07081781319
:103C300003C07281741304C02F5F3F4F2770E7CF1A
:103C400081E008951F93CF93DF9380910904807FD3
:103C5000A9F480910604882389F08091D203C09151
:103C6000D3036091040470910504A0910704B091FE
:103C70000804D62FD72316E0C81304C0DF91CF91D4
:103C80001F91089590E0109711F0DF3F19F401960D
:103C90008770F2CF189F9001199F300D1124F90100
:103CA000EC52FC4F41814713F2CF40814613EFCFD6
:103CB00042814111ECCF438154814A1B5B0B483C4C
:103CC000510528F7809109048F7080618093090461
:103CD000F901E752FC4F80818F708061808384E01E
:103CE00094E00E94491DDF91CF911F910C94D31D48
:103CF0008F929F92AF92BF92CF92DF92EF92FF92FC
:103D00000F931F93CF93DF93CDB7DEB761970FB6B5
:103D1000F894DEBF0FBECDBF8C0185E0F801DE0157
:103D20001D9601900D928A95E1F7D801EC901196BD
:103D3000FC9011971296CC90129784E0A82E84E004
:103D4000B82E40910704509108044115510509F41B
:103D500074C19091040420910504892F82238F3F20
:103D600009F46BC113968D909C901497D090060423
:103D7000F401E41BF50BDD2009F40AC1809109046C
:103D8000382F307FE83CF10508F0C1C0311189C0FF
:103D9000DC2C2F1126C09E1124C0C11022C08F70B0
:103DA0008061809309040E94F41DC5010E94491D91
:103DB00080910904D80115968C938D2D61960FB6CC
:103DC000F894DEBF0FBECDBFDF91CF911F910F9151
:103DD000FF90EF90DF90CF90BF90AF909F908F902B
:103DE00008958114910429F08F2D8E218F3F09F0C1
:103DF00043C180E080FF15C04C2D6F2D8E2D0E9499
:103E0000021E882371F084E094E00E94491D86E040
:103E1000E4E0F4E0DF011D928A95E9F70E94F41DC9
:103E20003EC0892829F08F2D8E218F3F09F021C1B6
:103E300080E0B82FB170AB2E80FF29C04C2D6F2DC4
:103E40008E2D0E94021EB82E811121C0ED86FE86A5
:103E50008D859E850E948322292F22952F702230E6
:103E600050F0243078F49F7051F0F8019581907FE4
:103E700031F4DB2CA2CF9F7011F08823D1F3805E48
:103E80008830B8F3C8010E94491DBA2CF2CFCC206B
:103E900009F493CF80910904816080930904D12CA7
:103EA0008CCF2F1105C09E1103C0CC2009F48DC00A
:103EB000ED86FE868D859E850E94B01D882319F1B2
:103EC000CC2009F180910904803270F02091040423
:103ED0003091050438872F8319869B868A868C87C4
:103EE000CE0107960E94491D86E0F801A4E0B4E0E7
:103EF00001900D928A95E1F70E94221E0E94F41D06
:103F0000DD24D3945ACFC8010E94491DF9CF311145
:103F100012C0782D998A888AA7016C2D89890E9400
:103F2000B41D84E094E00E94491D86E0F5011192E1
:103F30008A95E9F773CF2F110FC09E110DC0C110E4
:103F40000BC015968C93C8010E94491D86E0F501AF
:103F500011928A95E9F731CFED86FE868D859E8593
:103F60000E94B01D882379F2CC2069F28091090467
:103F7000803208F4B9CF20910404309105043A83CB
:103F800029831B829D828C828E83CE010196AACFCB
:103F9000E83CF10508F043C0DC2CCC2009F4B3CF99
:103FA0002F112CC09E112AC08091090480FD1DC0D4
:103FB000982F907FD1F015968C931597903F39F0FC
:103FC000982F907F905F8F70892B15968C93C801E6
:103FD0000E94491D86E0F801A4E0B4E001900D9232
:103FE0008A95E1F70E94F41DE8CE86E0F801A4E08E
:103FF000B4E001900D928A95E1F7DFCEED86FE8662
:104000008D859E850E94B01D81116ECF809109041F
:10401000816080930904C8010E94491DCECE782D8D
:10402000998A888AA7016C2D89890E94B41D86E02F
:10403000F50111928A95E9F7D5CFCC2009F463CF29
:10404000ED86FE868D859E850E94B01DD82E882324
:1040500009F459CF86E0F801A4E0B4E001900D9294
:104060008A95E1F784E094E00E944E1A0E94221E95
:10407000B9CF81E08C25DDCE81E08C25BBCE88ECEC
:1040800090E008951F93CF93DF93CDB7DEB72C97C1
:104090000FB6F894DEBF0FBECDBF4F835887698738
:1040A0007A878B879C87CE0107960E94781E88238B
:1040B00069F08A859B85892B39F04F815885842F3B
:1040C00085238F3F09F071C016E05FC086E0FE01D6
:1040D0003796DE01119601900D928A95E1F78A8557
:1040E0009B85892B89F38F81988589238F3F61F385
:1040F0002091D30330E0C901019687709927409140
:10410000D2034817190671F40E948D1D1092D30333
:104110001092D20386E0E4E0F4E0DF011D928A957C
:10412000E9F7D2CF96E0929FD001939FB00D112472
:10413000AC52BC4FFE01319601900D929A95E1F779
:104140008093D3030E94D31DBFCF819FC001112450
:104150008C529C4F0E94781E8823E9F0E091D20394
:104160001E9FF0011124EC52FC4F4081518162816D
:104170007381848195810E94C31D8091D20390E058
:104180000196877099278093D2038091D2039091F2
:10419000D3038913DACF2C960FB6F894DEBF0FBE87
:1041A000CDBFDF91CF911F91089569857A858B8569
:1041B0009C850E94C31D88CF08950C94DC200E942A
:1041C000DD206093450470934604809347049093E8
:1041D00048040C947F1D08950C94DF200F931F93C7
:1041E0000091450410914604209147043091480401
:1041F000602B712B822B932B1F910F910C94DF203E
:104200000F931F9300914504109146042091470499
:104210003091480460237123822393231F910F91CF
:104220000C94DF200F931F930091450410914604D6
:1042300020914704309148046027712782279327F3
:104240001F910F910C94DF200C94DC200C942421FE
:104250000E9426216093410470934204809343049A
:10426000909344040C947F1D60E070E0CB010C94AB
:1042700028210F931F9341E050E060E070E08A0135
:104280009B0104C0000F111F221F331F8A95D2F714
:10429000C901B8011F910F910C9428210F931F930E
:1042A00041E050E060E070E004C0440F551F661F1D
:1042B000771F8A95D2F78091410490914204A09192
:1042C0004304B09144048A019B01082B192B2A2B2B
:1042D0003B2BC901B8011F910F910C9428210F931A
:1042E0001F9341E050E060E070E004C0440F551FB0
:1042F000661F771F8A95D2F7CB01BA01609570953A
:1043000080959095009141041091420420914304BE
:104310003091440460237123822393231F910F91D2
:104320000C9428210F931F9341E050E060E070E06F
:1043300004C0440F551F661F771F8A95D2F78091DE
:10434000410490914204A0914304B09144048A0135
:104350009B01082719272A273B27C901B8011F916C
:104360000F910C9428210F931F93009141041091F9
:1043700042042091430430914404602B712B822B22
:10438000932B1F910F910C9428210F931F93009151
:10439000410410914204209143043091440460236D
:1043A0007123822393231F910F910C9428210F9343
:1043B0001F930091410410914204209143043091D5
:1043C000440460277127822793271F910F910C9433
:1043D00028210895E92FEE0FE90FEE0F8E0F982F89
:1043E000977041E001C0440F9A95EAF7869586954B
:1043F000869595E0899FF0011124E65FFB4F30E040
:1044000020E070E05191DF011197CB01022E02C034
:10441000969587950A94E2F7817081958527842384
:1044200085278C932F5F3F4F2530310559F708952D
:10443000E92FEE0FE90FEE0F8E0F982F97708695EC
:104440008695869525E0829FF0011124E65FFB4F5B
:1044500050E040E080E0219130E0092E02C0369526
:1044600027950A94E2F721703327042E01C0220F0A
:104470000A94EAF7822B4F5F5F4F4530510559F799
:104480000895BF92CF92DF92EF92FF920F931F9306
:10449000CF93DF938C01C0904104D0904204E09010
:1044A0004304F09044048091450490914604A09107
:1044B0004704B0914804C82AD92AEA2AFB2ACFE146
:1044C000D0E0BC2ED701C6010C2E04C0B695A7952E
:1044D000979587950A94D2F780FD0EC0219788F7AB
:1044E000B12C8B2DDF91CF911F910F91FF90EF9009
:1044F000DF90CF90BF900895B8018C2F0E947E0D61
:10450000019761F3EECFCF93DF93EC010E9441223C
:10451000BE01DF91CF910C947E0D1F93CF93DF935B
:10452000EB019091D103992331F0CB01DF91CF9131
:104530001F910C948322882379F0CB010E944122A1
:10454000182F682FCE010E94EA21BE01812FDF9132
:10455000CF911F910C947E0DCB010E941822182F31
:10456000F4CF682F8091F5029091F6020C94B62456
:10457000682F8091F5029091F6020C94C1248091ED
:10458000F5029091F6020C94CC2480914904859513
:104590008595859508958091490487700895909137
:1045A0004904977081E009F480E0089580916D04DA
:1045B000089590916D04892B80936D0408958095E2
:1045C00090916D04982390936D04089580936D04E9
:1045D000089510926D04089580916C04089590914F
:1045E0006C04892B80936C040895809590916C04E1
:1045F000982390936C04089510926C04089510927F
:104600006B04089580914A04089508950C9405233D
:1046100090914A04981721F080934A040C94062341
:10462000089580914A04882329F010924A0480E07A
:104630000C9406230895E091F502F091F602809122
:104640006D048083E091F502F091F60280819091F3
:104650006C04892B8083E091F502F091F602808151
:1046600090916B04892B808390914A04992381F067
:10467000E091F502F091F6028081892B8083809190
:10468000F5029091F6020E94222481110E941123CA
:104690008091F5029091F6020C941C1908950C94E7
:1046A0004E2398E0899F90011124622B6093490466
:1046B0000E944E21809149048595859585950C949D
:1046C0004F231092490480E00C944F2390914904A9
:1046D0008095892380934904282F277071F4282F0F
:1046E000082E000C330B9217130639F0859585952B
:1046F00085950E946F210C946123089590E080E0DD
:104700000E94EF3121E08C3E9E4F09F020E0822F85
:10471000089582E090E00C94E73183E090E00C94FF
:10472000E731CF9384E090E00E94E731C82F81E227
:1047300090E00E94E731982F8C2FCF910895CF936E
:10474000C92F682F84E090E00E94F5316C2F81E240
:1047500090E0CF910C94F531AB01BC018FE090E07B
:104760000C940732AB01BC0183E190E00C9407325A
:1047700060E070E0CB010C94B22360E070E0CB010C
:104780000E94AC230C94B8236CEE7EEF90E080E0A6
:104790000E94133260E082E090E00E94F53160E018
:1047A00083E090E00E94F531109245041092460497
:1047B000109247041092480460E084E090E00E9468
:1047C000F53160E081E290E00E94F53160E085E043
:1047D00090E00E94F53160E086E090E00E94F531C3
:1047E0006FEF87E090E00E94F53140E050E0BA01C1
:1047F00088E090E00E94073260E08DE090E00E9447
:10480000F53140E050E0BA0188E190E00E940732C3
:1048100060E087E190E00E94F53140E050E0BA01AD
:104820008CE190E00E94073260E080E290E00E941C
:10483000F5310C94BD230C94C423682F8EE090E0D6
:104840000C94F531FC01329680910903882321F004
:104850008091C6049EE187FF96E080E0915008F4C5
:10486000089521912223D1F38F5FF8CF662301F1C0
:10487000209109032223F1F02091C60427FF1AC0DA
:10488000462F4695469546954E3190F4677021E047
:1048900030E002C0220F331F6A95E2F7840F911DAA
:1048A000FC01828190E02823392381E0232B69F4E5
:1048B00080E00895FC01329608962191261721F098
:1048C000E817F907D1F7F4CF81E008959C01FC01C6
:1048D00032969FEF80E04191461751F09F3F19F4C7
:1048E000411101C0982F8F5F8630A9F79F3F09F4CF
:1048F0000895290F311D97FD3A95F90162830895B6
:10490000FC01329608962191261303C0DF0111970E
:104910001C92E817F907B9F70895E62FE695E69592
:10492000E695EE3168F4E80FF92FF11D677021E08C
:1049300030E001C0220F6A95EAF78281822B8283E0
:104940000895E62FE695E695E695EE3170F4E80FCA
:10495000F92FF11D677021E030E001C0220F6A9548
:10496000EAF7209582812823228308952091090364
:10497000222329F02091C60427FD0C948D240C9449
:10498000662420910903222329F02091C60427FDE3
:104990000C94A1240C948024FC013296809109038C
:1049A000882351F08091C60487FF06C08EE1DF01A5
:1049B0001D928A95E9F7089586E0F9CF0895089544
:1049C0000C94DF240E94E0248091CC04843049F1CF
:1049D00010926F0488E190E020E40FB6F894A89557
:1049E000809360000FBE2093600080E00E94620D03
:1049F0000E94E02483B7817F846083BF83B7816096
:104A000083BF7894889583B78E7F83BF0FB6F89461
:104A1000A89580916000886180936000109260008A
:104A20000FBE08950895CF930E94DE240E94C60F02
:104A30000E941225C0E08C2F0E94350F811105C005
:104A4000CF5FCE30C1F7CF91089581E0FCCF0895BC
:104A50000C9427250E948D1D0E9410190E94620D42
:104A60000C9428251F921FB61F9211248F939F9399
:104A7000AF93BF9380916F04811113C08091C204E2
:104A80009091C304A091C404B091C5044196A11DA6
:104A9000B11D8093C2049093C304A093C404B09347
:104AA000C504BF91AF919F918F911F901FBE1F9022
:104AB000189582E084BD93E095BD9AEF97BD8093F1
:104AC0006E0008952FB7F8948091C2049091C304AA
:104AD000A091C404B091C5042FBF08959C014FB7A5
:104AE000F8948091C2049091C304A091C404B09141
:104AF000C5044FBF821B930B089578941F921FB675
:104B00001F9211248F939F93AF93BF938091C20400
:104B10009091C304A091C404B091C5040196A11D55
:104B2000B11D8093C2049093C304A093C404B093B6
:104B3000C504BF91AF919F918F911F901FBE1F9091
:104B40001895F89481E08093E00080E28093D8008B
:104B5000E9ECF0E010828FE19EE40197F1F700C0EC
:104B600000001DBA109268001CBC10BE1FBA109243
:104B70007A0010926E0010926F00109271001092E5
:104B800072001082ECEBF0E0108214B817B81AB87B
:104B90001DB810BA108215B818B81BB81EB811BAD3
:104BA0000C94003F08950E947E23811102C00E9450
:104BB0001B240E94892380936E040E94912390936A
:104BC000C7048093C6040E948D23682F70E090E094
:104BD00080E00E94EC206091410470914204809139
:104BE0004304909144040C9426218091760480FF24
:104BF00012C06091FC0285E0689FB0011124759598
:104C000067957595679560387105A8F5611571050B
:104C1000A1F1862F089581FF09C06091FC0285E013
:104C2000689FB001112475956795EDCF6091FC02E6
:104C300082FD0AC0809175048823D1F09091FB0217
:104C40006091FC02891728F085E0689FB00111246B
:104C5000DACF869FB001112485E0869F9001879F5F
:104C6000300D1124692F70E0C9010E941A2FCBCF9B
:104C700065E070E0CECF8FE7089581E008958091E0
:104C8000760480FF0CC06091F80270E0759567951E
:104C9000759567956115710549F1862F089581FF16
:104CA00006C06091F80270E075956795F3CF60914A
:104CB000F80282FD0BC0909174049923A1F06091D9
:104CC000F7028091F802961738F0682F70E060388C
:104CD000710500F38FE70895899FC001112470E0EA
:104CE0000E941A2FF4CF61E070E0D7CF81E00895E1
:104CF000803F31F40E94F525819580937A040895D0
:104D0000813F19F40E94F525F8CF823F31F40E94CB
:104D1000F5258195809379040895833F19F40E94C5
:104D2000F525F8CF893F29F40E943F2680937B0424
:104D300008958A3F21F40E943F268195F7CF8B3F4B
:104D400031F40E943F26819580937C0408958C3F26
:104D500019F40E943F26F8CF843F31F48091780403
:104D60008160809378040895853F21F480917804D0
:104D70008260F7CF863F21F4809178048460F1CF80
:104D8000873F21F4809178048860EBCF883F21F43D
:104D9000809178048061E5CF8D3F31F48091760475
:104DA00081608093760408958E3F21F4809176048B
:104DB0008260F7CF8F3FB9F7809176048460F1CF9E
:104DC00090917904803F59F480917A0487FF0DC057
:104DD00010927A0491110BC01092750408C0813FA3
:104DE00081F480917A0418169CF3992381F08091C4
:104DF0007B0490917C04892B09F064C010927404A8
:104E00000895823F49F497FFF0CF10927904809182
:104E10007A048111ECCFE0CF833F19F41916ACF37B
:104E2000E4CF20917B04893F29F41216F4F6109206
:104E30007B04DBCF8A3F19F427FFD7CFF8CF20912F
:104E40007C048B3F29F427FFD0CF10927C04CDCF78
:104E50008C3F19F41216CCF3C8CF843F31F4809103
:104E600078048E7F80937804C0CF853F21F48091B1
:104E700078048D7FF7CF863F21F4809178048B7F73
:104E8000F1CF873F21F480917804877FEBCF883F73
:104E900021F4809178048F7EE5CF8D3F31F48091AD
:104EA00076048E7F80937604A0CF8E3F21F480918C
:104EB00076048D7FF7CF8F3F09F097CF80917604EE
:104EC0008B7FF0CF08950E9462259C019091790418
:104ED00080917A04982B21F030937304209372040C
:104EE00090917B0480917C04982B21F03093710485
:104EF0002093700487E794E00C943619EF92FF92A8
:104F00000F931F93CF93DF9300D000D000D0CDB785
:104F1000DEB786E0E7E7F4E0DE01119601900D923E
:104F20008A95E1F7E0907904F0907A0400917B048F
:104F300010917C041092790410927A0410927B04F0
:104F400010927C048E2D8F2991F0809172049091A3
:104F500073040E946E25AC0190917504992309F4A5
:104F60003FC08091FD028417150608F447C0802FCA
:104F7000812B91F080917004909171040E946E25B4
:104F8000AC0190917404992309F477C08091F902DF
:104F90008417150608F47FC08091790490917A04F3
:104FA000892B90917B04892B90917C04892B11F0A3
:104FB0000E94632786E0FE013196A7E7B4E00190E6
:104FC0000D928A95E1F726960FB6F894DEBF0FBED4
:104FD000CDBFDF91CF911F910F91FF90EF9008957A
:104FE0002091FE028AE0289F9001112424173507A2
:104FF00008F0BDCF9F5F9093750402C09F3FD1F72B
:10500000EE2059F00E94F5259FEF1E140CF491E05C
:10501000899F802D112480937904FF2059F00E94EC
:10502000F5259FEF1F140CF491E0899F802D11242A
:1050300080937A0430917904332309F498CF209136
:105040007A04222309F493CF45EB3403C0011124E1
:10505000992359F09093790445EB2403900111248E
:10506000332339F030937A0482CF81E0809379043E
:10507000F3CF81E080937A047ACF2091FA028AE01C
:10508000289F900111242417350708F085CF9F5FD2
:105090009093740402C09F3FD1F7002359F00E94FF
:1050A0003F269FEF10160CF491E0899F802D11246C
:1050B00080937B04112359F00E943F269FEF111625
:1050C0000CF491E0899F802D112480937C04309111
:1050D0007B04332309F460CF20917C04222309F45C
:1050E0005BCF45EB3403C0011124992359F0909311
:1050F0007B0445EB240390011124332339F03093D2
:105100007C044ACF81E080937B04F3CF81E08093DD
:105110007C0442CF86E0E7E7F4E0DF011D928A9548
:10512000E9F71092750410927404109276040895B1
:1051300080919D04089508959C0182E08093E90088
:105140009FEF8091E800915085FD06C085ED8A951E
:10515000F1F700009111F5CF8091E80085FF0CC0B8
:1051600050E040E066E070E0C9010E94892A809129
:10517000E8008E778093E8000895CF93DF93EC01E9
:10518000809109038823B1F18091C60487FF32C062
:1051900060E282E08093E9008FEF9091E800815017
:1051A00095FD06C095ED9A95F1F700008111F5CFB8
:1051B0008091E80085FF1BC08091090370E050E0FA
:1051C00040E0811104C050E040E068E070E0CE01B2
:1051D0000E94892A8091E8008E778093E80080E21F
:1051E000FE01ADE7B4E001900D928A95E1F7DF9101
:1051F000CF91089568E081E0CDCF08958091CB04F0
:10520000811109C00E94192C0E94762C8091E20025
:1052100084608093E20008951092CB04089508956D
:1052200008950C942A2542E061EC81E00E94952BC0
:1052300042E261EC82E00C94952B8091CE048330A5
:1052400009F45FC030F48130C1F1823009F49BC0B1
:1052500008958A3009F487C08B3009F46DC0893015
:1052600009F04EC08091CD04813209F049C080918F
:10527000D1049091D204029708F042C08091E800D6
:10528000877F8093E8008091E80082FF35C090918D
:10529000F3008091F200029729F48091F1008B7F56
:1052A000813021F48091F10080939D048091E80089
:1052B0008B778093E8000C94C92B8091CD04813AC0
:1052C000F9F48091E800877F8093E8008091D10411
:1052D0009091D204892B61F460E28DE794E070E054
:1052E0000E94D82A8091E8008B778093E800089587
:1052F00060E090E080E0F3CF8091CC048111C3CFD7
:1053000008958091CD04813AD9F78091D10490918C
:10531000D204892BA9F78091E800877F8093E80069
:105320008091E80080FFFCCF809109038093F10019
:105330008091E8008E77BDCF8091CD04813201F756
:105340008091D1049091D204892BD1F68091E8000C
:10535000877F8093E8000E94C92B8091CF048093BF
:1053600009030C948D1D8091CD04813249F6809102
:10537000E800877F8093E8000E94C92B8091D004C9
:1053800080939E0408958091CD04813A09F0B8CFAE
:105390008091E800877F8093E8008091E80080FF9B
:1053A000FCCF80919E04C2CF84B7877F84BF0FB6A5
:1053B000F894A895809160008861809360001092B5
:1053C00060000FBE80E890E00FB6F8948093610013
:1053D000909361000FBE0E947D190E94192C0E94BB
:1053E000762C8091E20084608093E20078940E94A1
:1053F000FF2E0E9485198FEF92E00E940B19809179
:10540000CC04853019F00E948D19F9CF0E94E22456
:105410008091CA04882399F30E941325882379F385
:105420000E94732AECCF0C94152A292F332723309E
:10543000310519F168F42130310509F44AC02230F0
:10544000310509F44BC090E080E030E020E028C056
:105450002132310579F122323105A9F780E490E05B
:1054600021E138E061157105D9F08AE890E027E87C
:1054700037E061307105A1F0E6CF992781309105C1
:1054800099F0009741F08230910589F00397D9F6A1
:10549000ECE0F7E002C0E6E3F7E0849190E09F01E2
:1054A000FA01318320830895E8E2F7E0F6CFE2E1E4
:1054B000F7E0F3CF89E090E02CE437E06115710567
:1054C00079F389E090E025E637E06130710541F33A
:1054D000BACF82E190E025E737E0E2CF8BE390E0BE
:1054E0002AE337E0DDCF80E189BD82E189BD09B4DF
:1054F00000FEFDCF8091D8008F7D8093D8008091F1
:10550000E00082608093E0008091E00081FDFCCFAC
:105510000895AF92BF92CF92DF92FF920F931F93A5
:10552000CF93DF936C01EB018A010E94E82BF82EE8
:10553000811123C00115110539F0F8018081918195
:10554000C81BD90BC80ED91EB12CA12C2097A9F0CD
:105550008091E80085FD22C08091E8008E778093DD
:10556000E80001151105A1F0F80180819181A80ED4
:10557000B91EB182A08285E0F82E8F2DDF91CF91E8
:105580001F910F91FF90DF90CF90BF90AF90089543
:105590000E94E82B8823D1F2F82EEFCFF6018191FB
:1055A0006F018093F1002197FFEFAF1ABF0ACECFB2
:1055B000FC018091D3049091D40486179707A0F042
:1055C0006115710529F49091E8009E779093E800A9
:1055D00090E06115710551F4911108C08091E800C7
:1055E00082FF34C080E00895BC01F2CF8091CC04EA
:1055F0008823C1F18530C1F18091E80083FD30C07E
:105600008091E80082FDEACF8091E80080FFE1CF41
:105610008091F3002091F200382F6115710519F087
:105620002830310558F091E02830310509F090E03C
:105630002091E8002E772093E800CBCF81918093D2
:10564000F100615071092F5F3F4FE7CF8091CC048B
:10565000882341F0853041F08091E80083FFBECF80
:1056600081E0089582E0089583E00895FC0180912F
:10567000D3049091D40486179707A0F061157105A3
:1056800029F48091E8008E778093E80090E061151E
:10569000710551F4911108C08091E80082FF35C076
:1056A00080E00895BC01F2CF8091CC048823C9F139
:1056B0008530C9F18091E80083FD31C08091E80018
:1056C00082FDEACF8091E80080FFE1CF8091F30076
:1056D0002091F200382F6115710519F0283031053D
:1056E00058F091E02830310509F090E08091E80011
:1056F0008E778093E800CBCF84918093F100319630
:10570000615071092F5F3F4FE6CF8091CC04882311
:1057100041F0853041F08091E80083FFBDCF81E00A
:10572000089582E0089583E00895982F973028F037
:105730008F708093E90081E008959093E900242F11
:10574000762F50E0981731F07091EC002091ED0029
:105750005091F00021FD02C09F5FE8CF3091EB0037
:105760003E7F3093EB003091ED003D7F3093ED00B4
:105770003091EB0031603093EB007093EC0020939C
:10578000ED005093F0002091EE0027FDE5CF80E082
:1057900008958091CD0487FF13C08091E80082FFB7
:1057A00006C08091E8008B778093E80004C0809168
:1057B000CC048111F2CF08958091CC048823D9F3D1
:1057C0008091E80080FFF8CF8091E8008E77ECCFE1
:1057D0002091E4003091E50095E6A9012091EC00CC
:1057E000822F817020FF06C08091E80080FF06C0F4
:1057F00080E008952091E80022FD1AC08091CC0439
:10580000882389F0853089F08091EB0085FD0FC0F9
:105810002091E4003091E50042175307F9F29150CE
:10582000E1F684E0089582E0089583E0089581E040
:1058300008950E94872C0E948F2CE0EEF0E080817A
:1058400081608083E8EDF0E080818F77808319BCF0
:10585000A7EDB0E08C918E7F8C9380818F7E8083CA
:105860001092CB0408950F931F93CF93DF930E9460
:10587000872C0E948F2CC8EDD0E088818F77888399
:1058800088818068888388818F7D888319BC109285
:10589000CC041092C8041092CA041092C90400EEFD
:1058A00010E0F80180818B7F80838881816088830C
:1058B00042E060E080E00E94952BE1EEF0E0808124
:1058C0008E7F8083E2EEF0E0808181608083808142
:1058D00088608083F80180818E7F808388818061E9
:1058E0008883DF91CF911F910F910895E8EDF0E04B
:1058F00080818F7E8083E7EDF0E08081816080830E
:1059000084E082BF81E08093CB040C94332CE8EDDB
:10591000F0E080818E7F80831092E20008951092E3
:10592000DA001092E10008951F920F920FB60F92C5
:1059300011242F933F934F935F936F937F938F9394
:105940009F93AF93BF93EF93FF938091E10082FF0A
:105950000BC08091E20082FF07C08091E1008B7F45
:105960008093E1000E94FE2E8091DA0080FF19C032
:105970008091D80080FF15C08091DA008E7F8093DF
:10598000DA008091D90080FF96C080E189BD82E174
:1059900089BD09B400FEFDCF81E08093CC040E9454
:1059A000FE288091E10080FF19C08091E20080FF15
:1059B00015C08091E2008E7F8093E2008091E2002A
:1059C00080618093E2008091D80080628093D8004B
:1059D00019BC85E08093CC040E9410298091E100DD
:1059E00084FF2BC08091E20084FF27C080E189BD45
:1059F00082E189BD89B5982F917080FFFBCF80919E
:105A0000D8008F7D8093D8008091E1008F7E8093B5
:105A1000E1008091E2008F7E8093E2008091E200BD
:105A200081608093E2008091C804882309F449C012
:105A300084E08093CC040E9411298091E10083FFCF
:105A400029C08091E20083FF25C08091E100877F1B
:105A50008093E10082E08093CC041092C80480918E
:105A6000E1008E7F8093E1008091E2008E7F809341
:105A7000E2008091E20080618093E20042E060E019
:105A800080E00E94952B8091F00088608093F00068
:105A90000E940F29FF91EF91BF91AF919F918F913C
:105AA0007F916F915F914F913F912F910F900FBE1A
:105AB0000F901F90189519BC1092CC040E940C29CD
:105AC00070CF8091E30087FD93E09093CC04B3CF37
:105AD0001F920F920FB60F9211242F933F934F9363
